{
  "contractName": "CompanyRegistry",
  "abi": [
    {
      "constant": true,
      "inputs": [
        {
          "name": "",
          "type": "address"
        }
      ],
      "name": "companies",
      "outputs": [
        {
          "name": "ethAddress",
          "type": "address"
        },
        {
          "name": "ipfsURI",
          "type": "string"
        }
      ],
      "payable": false,
      "stateMutability": "view",
      "type": "function"
    },
    {
      "anonymous": false,
      "inputs": [
        {
          "indexed": true,
          "name": "ethAddress",
          "type": "address"
        },
        {
          "indexed": false,
          "name": "ipfsURI",
          "type": "string"
        }
      ],
      "name": "CompanyRegistered",
      "type": "event"
    },
    {
      "constant": false,
      "inputs": [
        {
          "name": "_ipfsURI",
          "type": "string"
        },
        {
          "name": "isregistered",
          "type": "bool"
        }
      ],
      "name": "registerCompany",
      "outputs": [],
      "payable": false,
      "stateMutability": "nonpayable",
      "type": "function"
    },
    {
      "constant": true,
      "inputs": [
        {
          "name": "_ethAddress",
          "type": "address"
        }
      ],
      "name": "getCompany",
      "outputs": [
        {
          "name": "",
          "type": "string"
        }
      ],
      "payable": false,
      "stateMutability": "view",
      "type": "function"
    }
  ],
  "bytecode": "0x608060405234801561001057600080fd5b5061077e806100206000396000f3fe608060405260043610610051576000357c010000000000000000000000000000000000000000000000000000000090048063355e6ce81461005657806362bc56e6146101535780637ccd28161461021d575b600080fd5b34801561006257600080fd5b506100a56004803603602081101561007957600080fd5b81019080803573ffffffffffffffffffffffffffffffffffffffff1690602001909291905050506102f1565b604051808373ffffffffffffffffffffffffffffffffffffffff1673ffffffffffffffffffffffffffffffffffffffff16815260200180602001828103825283818151815260200191508051906020019080838360005b838110156101175780820151818401526020810190506100fc565b50505050905090810190601f1680156101445780820380516001836020036101000a031916815260200191505b50935050505060405180910390f35b34801561015f57600080fd5b506101a26004803603602081101561017657600080fd5b81019080803573ffffffffffffffffffffffffffffffffffffffff1690602001909291905050506103cd565b6040518080602001828103825283818151815260200191508051906020019080838360005b838110156101e25780820151818401526020810190506101c7565b50505050905090810190601f16801561020f5780820380516001836020036101000a031916815260200191505b509250505060405180910390f35b34801561022957600080fd5b506102ef6004803603604081101561024057600080fd5b810190808035906020019064010000000081111561025d57600080fd5b82018360208201111561026f57600080fd5b8035906020019184600183028401116401000000008311171561029157600080fd5b91908080601f016020809104026020016040519081016040528093929190818152602001838380828437600081840152601f19601f8201169050808301925050505050505091929192908035151590602001909291905050506104b0565b005b60006020528060005260406000206000915090508060000160009054906101000a900473ffffffffffffffffffffffffffffffffffffffff1690806001018054600181600116156101000203166002900480601f0160208091040260200160405190810160405280929190818152602001828054600181600116156101000203166002900480156103c35780601f10610398576101008083540402835291602001916103c3565b820191906000526020600020905b8154815290600101906020018083116103a657829003601f168201915b5050505050905082565b60606000808373ffffffffffffffffffffffffffffffffffffffff1673ffffffffffffffffffffffffffffffffffffffff1681526020019081526020016000206001018054600181600116156101000203166002900480601f0160208091040260200160405190810160405280929190818152602001828054600181600116156101000203166002900480156104a45780601f10610479576101008083540402835291602001916104a4565b820191906000526020600020905b81548152906001019060200180831161048757829003601f168201915b50505050509050919050565b80151515610526576040517f08c379a000000000000000000000000000000000000000000000000000000000815260040180806020018281038252601a8152602001807f436f6d70616e7920616c7265616479207265676973746572656400000000000081525060200191505060405180910390fd5b60408051908101604052803373ffffffffffffffffffffffffffffffffffffffff168152602001838152506000803373ffffffffffffffffffffffffffffffffffffffff1673ffffffffffffffffffffffffffffffffffffffff16815260200190815260200160002060008201518160000160006101000a81548173ffffffffffffffffffffffffffffffffffffffff021916908373ffffffffffffffffffffffffffffffffffffffff16021790555060208201518160010190805190602001906105f29291906106ad565b509050503373ffffffffffffffffffffffffffffffffffffffff167f76686aa361308f4a08557cca1a847299ce61e5602a3495cd359a599a1dca438c836040518080602001828103825283818151815260200191508051906020019080838360005b8381101561066f578082015181840152602081019050610654565b50505050905090810190601f16801561069c5780820380516001836020036101000a031916815260200191505b509250505060405180910390a25050565b828054600181600116156101000203166002900490600052602060002090601f016020900481019282601f106106ee57805160ff191683800117855561071c565b8280016001018555821561071c579182015b8281111561071b578251825591602001919060010190610700565b5b509050610729919061072d565b5090565b61074f91905b8082111561074b576000816000905550600101610733565b5090565b9056fea165627a7a7230582076c0094c94b1c62e80d74e6be159306ae050e774b86dc274eb7bd4785223f9ff0029",
  "source": "// SPDX-License-Identifier: MIT\npragma solidity >=0.4.22 <0.9.0;\n\ncontract CompanyRegistry {\n    struct Company {\n        address ethAddress;\n        string ipfsURI;\n    }\n\n    mapping(address => Company) public companies;\n\n    event CompanyRegistered(address indexed ethAddress, string ipfsURI);\n\n    function registerCompany( string memory _ipfsURI,bool isregistered) public {\n        require(!isregistered, \"Company already registered\");\n        \n        companies[msg.sender] = Company({\n            ethAddress: msg.sender,\n            ipfsURI: _ipfsURI\n        });\n\n        emit CompanyRegistered(msg.sender, _ipfsURI);\n    }\n\n    function getCompany(address _ethAddress) public view returns ( string memory) {\n        return (companies[_ethAddress].ipfsURI);\n    }\n}\n\n",
  "sourcePath": "/Users/bisnuadhikari1/Desktop/SUPPLYCHAIN/contracts/indentify.sol",
  "compiler": {
    "name": "solc",
    "version": "0.5.1+commit.c8a2cb62.Emscripten.clang"
  },
  "schemaVersion": "3.4.14",
  "updatedAt": "2023-07-04T17:16:26.946Z",
  "devdoc": {
    "methods": {}
  },
  "userdoc": {
    "methods": {}
  }
}